S01E000052544F535F44726976656E5F536D6172745F486F6D652E73726563A9
S11300000C942A000C9447000C9447000C9447006D
S11300100C9447000C9447000C9447000C94C605BC
S11300200C9447000C9447000C94C10F0C949A0F45
S11300300C9447000C9447000C9447000C94470020
S11300400C9447000C9447000C9447000C94470010
S11300500C94470011241FBECFE5D8E0DEBFCDBF0E
S113006010E0A0E6B0E0E0E3F3E202C005900D92F8
S1130070AE3FB107D9F725E0AEEFB0E001C01D9265
S1130080A038B207E1F70E948D020C9496110C94EB
S11300900000CF93DF9300D000D0CDB7DEB7198234
S11300A01A821B821C8220E044E650E060E070E08B
S11300B080917E0590917F050E94A6078130E1F52D
S11300C08091FF008823C1F180E00E94E40EBC010E
S11300D080E090E00E94261020E030E04AEF53E4F4
S11300E00E94911020E030E040E85AE30E94911011
S11300F069837A838B839C8320E044E650E0BE01CD
S11301006F5F7F4F80917C0590917D050E9414075D
S113011061E080E00E94820E86E690E00E946F0E0D
S113012061E085E00E94820E69817A818B819C81E5
S11301300E94F70F0E948A0E20E040E050E060E049
S113014070E080917E0590917F050E94140784E6FB
S113015090E00E949A0BA7CFCF93DF931F92CDB765
S1130160DEB7198220E044E650E060E070E0809160
S11301707E0590917F050E94A607813071F50E944B
S1130180F30FE091FE0091E09E0F9093FE00F0E0EB
S1130190E858FA4F8083943000F11092FE0044E056
S11301A050E060E670E088E795E00E948011892BBA
S11301B019F481E0898301C0198220E044E650E00B
S11301C0BE016F5F7F4F80917605909177050E9405
S11301D0140780E090E00E94350C20E040E050E0FD
S11301E060E070E080917E0590917F050E94140785
S11301F0B9CFCF93DF931F92CDB7DEB720E044E6AB
S113020050E060E070E080917E0590917F050E944F
S1130210A607813099F720E044E650E0BE016F5F05
S11302207F4F80917605909177050E94A6078130D3
S113023041F58981813081F48093FF0041E060E0E1
S113024082E00E94F50E60E080E00E94820E8CE65F
S113025090E00E946F0E15C060E080E00E94820E64
S113026086E790E00E946F0E61E080E00E94820EBB
S113027086E890E00E946F0E41E061E082E00E9417
S1130280F50E20E040E050E060E070E080917E05F3
S113029090917F050E94140780E090E00E94350C45
S11302A0ADCF20E044E650E060E070E080917E0550
S11302B090917F050E94A607813009F05AC0809171
S11302C0FF00882309F455C081E00E94E40E9C01DC
S11302D0220F331F220F331F820F931F6FEF73E020
S11302E00E944A116430710598F060E088E00E9431
S11302F0820E86E990E00E946F0E40E066E082E0A4
S11303000E94F50E40E067E082E00E94F50E31C0E5
S113031080E090E00E94261020E030E040EC5FE3B3
S11303200E948C1018169CF460E088E00E94820EF3
S11303308FE990E00E946F0E41E066E082E00E9447
S1130340F50E40E067E082E00E94F50E12C060E026
S113035088E00E94820E88EA90E00E946F0E41E0DD
S113036066E082E00E94F50E41E067E082E00E94D0
S1130370F50E20E040E050E060E070E080917E0502
S113038090917F050E94140784E690E00E949A0BE6
S113039088CFCF93DF9300D000D0CDB7DEB71982DA
S11303A01A821B821C8220E044E650E060E070E088
S11303B080917E0590917F050E94A607813009F007
S11303C09CC08091FF00882309F497C020E044E694
S11303D050E0BE016F5F7F4F80917C0590917D0559
S11303E00E94A607C980DA80EB80FC8020E030E020
S11303F04CE052E4C701B6010E948C101816D4F4E4
S113040084E690E00E94780F61E087E00E94820E0B
S113041081EB90E00E946F0E61E08CE00E94820EFE
S113042064E670E080E090E00E948A0E85E20E941B
S11304301C0E63C020E030E040EF51E4C701B60178
S11304400E948C101816DCF486E490E00E94780F69
S113045061E087E00E94820E81EB90E00E946F0EC3
S113046061E08CE00E94820E66E470E080E090E03F
S11304700E948A0E87EB90E00E946F0E3EC020E03F
S113048030E048EC51E4C701B6010E948C10181604
S1130490DCF48EE190E00E94780F61E087E00E9436
S11304A0820E81EB90E00E946F0E61E08CE00E946E
S11304B0820E6EE170E080E090E00E948A0E87EB8D
S11304C090E00E946F0E19C080E090E00E94780FC7
S11304D061E087E00E94820E81EB90E00E946F0E43
S11304E061E08CE00E94820E60E070E0CB010E942B
S11304F08A0E8AEB90E00E946F0E20E040E050E00C
S113050060E070E080917E0590917F050E94140761
S113051084E690E00E949A0B46CFEF92FF920F93ED
S113052060EF80E00E94680F6FEF81E00E94680F27
S11305306FEF82E00E94680F60EF83E00E94680F13
S1130540E12CF12C05E020E030E044E650E06EEBD5
S113055070E089E490E00E94EA0906E020E030E0DF
S113056044E650E063EC70E089EF90E00E94EA0911
S113057007E020E030E044E650E06AEC70E08CEA0A
S113058090E00E94EA0904E020E030E044E650E014
S113059063ED70E089EC91E00E94EA0903E020E059
S11305A030E044E650E067ED70E081E591E00E94C0
S11305B0EA090E94E80F0E94500E0E94D40E43E004
S11305C060E081E00E94EA0690937F0580937E05B7
S11305D020E040E050E060E070E00E94140740E05A
S11305E064E081E00E94EA0690937D0580937C0597
S11305F040E061E081E00E94EA06909377058093F1
S1130600760560E080E00E94820E8BED90E00E940F
S11306106F0E61E080E00E94820E88EE90E00E94FE
S11306206F0E0E943E0A80E090E00F91FF90EF90E1
S11306300895E5E0F1E08AE091E0918380831382FC
S11306401282E1E0F1E087EE93E0938382831182EA
S11306501082A9E0B1E014969C938E93139712969E
S1130660FC93EE93119708950F931F93CF93DF9309
S1130670EC010E94680A80910001811105C00E946A
S1130680190381E080930001209709F02496CE019C
S11306900197863E934008F056C0E0910501F09121
S11306A00601A5E0B1E002C0DF01FC018281938173
S11306B08C179D0720F4808191810097A9F781E030
S11306C0E130F80709F442C00D911C9111970C5FB9
S11306D01F4F808191818D939C93828193818C1B88
S11306E09D0B8930910510F1AF014C0F5D1FDA01AC
S11306F013969C938E931297D383C28312962D9153
S11307003C91139765E071E001C0BD01EB01A88144
S1130710B98112968D919C91139782179307A8F330
S1130720EA01B983A883DB014D935C932281338171
S11307308091640090916500821B930B90936500F7
S11307408093640005C000E010E002C000E010E007
S11307500E94280BC801DF91CF911F910F9108953A
S11307600F931F93CF93DF93009741F1EC018C011A
S1130770045011090E94680AF80142815381A5E0DE
S1130780B1E001C0DF01ED91FC9111972281338129
S113079024173507B8F32497F983E8830D931C9342
S11307A08A819B812091640030916500820F931FA0
S11307B090936500809364000E94280BDF91CF9191
S11307C01F910F910895FC010396928381832FEF6B
S11307D03FEF3483238396838583908787831082B6
S11307E00895FC01118610860895CF93DF939C0130
S11307F0FB01DC011196CD91DC911297D383C28366
S11308008C819D81958384838C819D81DC011396E9
S11308107C936E9312977D836C8331872087F901D3
S113082080818F5F8083DF91CF910895CF93DF9391
S1130830EB01488159814F3F2FEF520721F4FC010E
S1130840A781B0850DC0DC01139601C0DF011296AB
S1130850ED91FC9113972081318142175307B0F732
S11308601296ED91FC911397FB83EA83D583C4839D
S1130870BD83AC831396DC93CE93129799878887B4
S1130880FC0120812F5F2083DF91CF910895CF93C6
S1130890DF93FC01A085B185C281D38184819581D8
S11308A09D838C83C481D581828193819B838A8338
S11308B011968D919C911297E817F90731F4848170
S11308C0958112969C938E931197118610868C9124
S11308D081508C93DF91CF9108951BBC89EF8ABD21
S11308E08BE08EBD89B7806189BF089531E1FC0139
S11308F03083319722E220833197A3E3A083319799
S113090060833197708331971082319760E86083F8
S113091031971082319762E06083319763E060839E
S1130920319764E06083319765E06083319766E0D6
S11309306083319767E06083319768E06083319723
S113094069E06083319760E1608331973083319748
S113095032E13083319733E13083319734E13083AE
S1130960319735E13083319736E13083319737E180
S11309703083319738E13083319739E130833197CF
S113098030E23083319731E23083319720833197DD
S113099023E220833197408331975083319726E2B5
S11309A02083319727E22083319728E220833197EF
S11309B029E22083319720E32083319721E32083A8
S11309C0869708950E946D04A0917005B0917105F9
S11309D0CD91CDBFDD91DEBFFF91EF91DF91CF913E
S11309E0BF91AF919F918F917F916F915F914F9143
S11309F03F912F911F910F91FF90EF90DF90CF9037
S1130A00BF90AF909F908F907F906F905F904F902A
S1130A103F902F901F900F900FBE0F90089581E08C
S1130A2008950F920FB6F8940F921F9211242F92EB
S1130A303F924F925F926F927F928F929F92AF926A
S1130A40BF92CF92DF92EF92FF920F931F932F9357
S1130A503F934F935F936F937F938F939F93AF9342
S1130A60BF93CF93DF93EF93FF93A0917005B09161
S1130A7071050DB60D920EB60D920E94E10BA09178
S1130A807005B0917105CD91CDBFDD91DEBFFF91B1
S1130A90EF91DF91CF91BF91AF919F918F917F9112
S1130AA06F915F914F913F912F911F910F91FF9003
S1130AB0EF90DF90CF90BF90AF909F908F907F90FA
S1130AC06F905F904F903F902F901F900F900FBEAC
S1130AD00F9008950F920FB6F8940F921F9211245D
S1130AE02F923F924F925F926F927F928F929F923A
S1130AF0AF92BF92CF92DF92EF92FF920F931F9328
S1130B002F933F934F935F936F937F938F939F9311
S1130B10AF93BF93CF93DF93EF93FF93A0917005AF
S1130B20B09171050DB60D920EB60D920E946E0A2B
S1130B3081110E94E10BA0917005B0917105CD91D6
S1130B40CDBFDD91DEBFFF91EF91DF91CF91BF91DA
S1130B50AF919F918F917F916F915F914F913F9151
S1130B602F911F910F91FF90EF90DF90CF90BF9046
S1130B70AF909F908F907F906F905F904F903F9039
S1130B802F901F900F900FBE0F9008950E946A053A
S1130B9018950FB6F8940F92FC01828D811102C052
S1130BA081E001C080E00F900FBE08950FB6F89465
S1130BB00F92FC01228D838D281302C081E001C0B5
S1130BC080E00F900FBE08950F931F93CF93DF9390
S1130BD0EC01042F1A8D4C8D41110CC08881998130
S1130BE0892B09F042C08A819B810E94870D1B8258
S1130BF01A8242C0011117C050E08C819D810E946D
S1130C008D112C8D8C819D81820F911D9D838C83F0
S1130C102A813B818217930750F1888199819D83B2
S1130C208C8380E029C050E08E819F810E948D11C9
S1130C308C8D90E09195819591092E813F81280FAB
S1130C40391F3F832E83488159812417350730F497
S1130C502A813B81820F931F9F838E83023049F444
S1130C60112349F0115080E007C080E005C080E006
S1130C7003C080E001C080E01F5F1A8FDF91CF9135
S1130C801F910F910895FC01448D4423A9F050E075
S1130C9026813781240F351F3783268382819381F0
S1130CA02817390720F08081918197838683CB01AF
S1130CB0668177810E948D1108951F93CF93DF93EE
S1130CC0EC010FB6F8940F921E8D0BC0898988230E
S1130CD051F0CE0141960E94950C81110E94210D84
S1130CE0115011169CF38FEF8E8F0F900FBE0FB61D
S1130CF0F8940F921D8D0BC08885882351F0CE0186
S1130D0008960E94950C81110E94210D1150111614
S1130D109CF38FEF8D8F0F900FBEDF91CF911F91BA
S1130D200895CF93DF93EC010FB6F8940F92E88106
S1130D30F9818B8D90E02C8D30E0829FA001839F00
S1130D40500D929F500D11244E0F5F1F5B834A83F9
S1130D501A8EFD83EC830197289FA001299F500DD3
S1130D60389F500D1124CF01840F951F9F838E83CC
S1130D708FEF8D8F8E8F61110CC08885882389F049
S1130D80CE0108960E94950C882359F00E94110503
S1130D9008C0CE0108960E94E303CE0141960E944A
S1130DA0E3030F900FBE81E0DF91CF9108950F937D
S1130DB01F93F801611103C01183008302C05183A2
S1130DC04083838F648F61E0CF010E9491061F915D
S1130DD00F910895DF92EF92FF920F931F93CF9399
S1130DE0DF93E82EF62ED42E662321F0869FC001D1
S1130DF0112402C080E090E04F960E943403EC017D
S1130E00009749F08C012D2DAC01415E5F4F6F2D91
S1130E108E2D0E94D706CE01DF91CF911F910F91A5
S1130E20FF90EF90DF900895CF92DF92EF92FF92C0
S1130E300F931F93CF93DF9300D000D01F92CDB7B1
S1130E40DEB78C017B015D834C83C22ED12C0FB69F
S1130E50F8940F92F801928D838D981718F0F2E0B0
S1130E60CF1219C04C2DB701C8010E94E405F80146
S1130E709189992349F0C80141960E94950C8823D1
S1130E8031F00E94110503C081110E9411050F90D9
S1130E900FBE81E04DC08C819D81892B21F40F9080
S1130EA00FBE80E045C0D11006C0CE0101960E945D
S1130EB0DD0CDD24D3940F900FBE0E94680A0FB698
S1130EC0F8940F92F801858D8F3F09F4158EF8017F
S1130ED0868D8F3F09F4168E0F900FBEBE016C5F96
S1130EE07F4FCE0101960E94E80C81111BC0C801FE
S1130EF00E94D605882381F06C817D81C801089603
S1130F000E94830CC8010E945D060E94280B811177
S1130F109ECF0E9411059BCFC8010E945D060E94CE
S1130F20280B95CFC8010E945D060E94280B80E023
S1130F300F900F900F900F900F90DF91CF911F9112
S1130F400F91FF90EF90DF90CF9008958F929F9232
S1130F50BF92CF92DF92EF92FF920F931F93CF93A2
S1130F60DF9300D000D01F92CDB7DEB78C016B01A8
S1130F705D834C83B22EE12C0FB6F8940F92F801E6
S1130F80F28CFF2091F186809780B601C8010E94FF
S1130F904306B11019C0FA94F801F28E8081918150
S1130FA0892B29F40E94C70DF80193838283F801E9
S1130FB080858823B1F0C80108960E94950C882387
S1130FC081F00E9411050DC0F80197828682818903
S1130FD0882339F0C80141960E94950C81110E9422
S1130FE011050F900FBE81E061C08C819D81892B1A
S1130FF021F40F900FBE80E059C0E11006C0CE016D
S113100001960E94DD0CEE24E3940F900FBE0E9423
S1131010680A0FB6F8940F92F801858D8F3F09F492
S1131020158EF801868D8F3F09F4168E0F900FBE32
S1131030BE016C5F7F4FCE0101960E94E80C8111C6
S113104029C0C8010E94C9058823F1F0F8018081F4
S11310509181892B49F40FB6F8940F928281938180
S11310600E94250D0F900FBE6C817D81C8014196B1
S11310700E94830CC8010E945D060E94280B811106
S11310807BCF0E94110578CFC8010E945D060E94A3
S1131090280B72CFC8010E945D060E94280BC8016C
S11310A00E94C905882309F467CF80E00F900F9050
S11310B00F900F900F90DF91CF911F910F91FF90A0
S11310C0EF90DF90CF90BF909F908F900895E09124
S11310D01D05F0911E058081811107C08FEF9FEFE0
S11310E09093F5048093F4040895E0911D05F09124
S11310F01E050580F681E02D0680F781E02D8281B2
S113110093819093F5048093F4040895CF93DF932F
S1131110EC018F89988D0E94B003CE010E94B00328
S1131120DF91CF9108956F927F928F929F92AF92A9
S1131130BF92CF92DF92EF920F931F93CF93DF93DF
S1131140CDB7DEB74C01F5018789908D2150310967
S11311503C01620E731E20E00FC0822F90E0FB0161
S1131160E80FF91F3081D501A80FB91F59963C9398
S11311708081882319F02F5F283078F3F50110A2BD
S1131180F6E0FE1520F40F2EF6E0EF2EF02DF5011B
S1131190E68AE1A212A2C50102960E94F103C501EA
S11311A00C960E94F103F501B186A08687E090E0D9
S11311B08E19910995878487B38AA28A13A214A2EF
S11311C015A216A217A2A801B401C3010E947604B5
S11311D0F50191838083C114D10419F0F601B18221
S11311E0A082DF91CF911F910F91EF90DF90CF906C
S11311F0BF90AF909F908F907F906F900895CF9302
S1131200C0E010C08C2F90E09C01220F331F220FEE
S1131210331F220F331F820F931F8F5C9A4F0E943C
S1131220E303CF5FC73070F388E295E00E94E303E5
S11312308FE195E00E94E30382E195E00E94E303DD
S113124089E095E00E94E3038FEF94E00E94E303BA
S113125088E295E090931E0580931D058FE195E04B
S113126090931C0580931B05CF910895CF93DF9332
S1131270EC010FB6F8940F928091FE048F5F809377
S1131280FE048091700590917105892B59F4D093D7
S11312907105C09370058091FE04813099F40E9419
S11312A0FF0810C08091FA0481110CC0E091700510
S11312B0F091710596898E89891720F0D093710574
S11312C0C09370058091F6048F5F8093F6048E8935
S11312D09091FB04981710F48093FB0490E09C0118
S11312E0220F331F220F331F220F331F820F931F2E
S11312F0BE016E5F7F4F8F5C9A4F0E94F5030F9083
S11313000FBE8091FA04882351F0E0917005F091AA
S1131310710596898E89981710F40E941105DF9142
S1131320CF910895FF920F931F93CF93DF93EC0116
S1131330F62E0091FC041091FD04809170059091AB
S1131340710502960E944704CF3F8FEFD80769F4D6
S1131350FF2059F060917005709171056E5F7F4FA9
S11313608FEF94E00E94F5032FC0C00FD11FE091CE
S11313707005F0917105D383C283C017D10768F457
S1131380609170057091710580911B0590911C0509
S11313906E5F7F4F0E94160417C0609170057091B4
S11313A0710580911D0590911E056E5F7F4F0E940F
S11313B016048091F4049091F504C817D90720F419
S11313C0D093F504C093F404DF91CF911F910F9152
S11313D0FF9008952F923F924F925F926F927F9267
S11313E08F929F92AF92BF92CF92DF92EF92FF9231
S11313F00F931F93CF93DF933C011B015A012901E3
S1131400CA010E9434036C01892B71F088E290E0D8
S11314100E943403EC01892B19F0D88ECF8A06C0C0
S1131420C6010E94B00302C0C0E0D0E0209791F052
S1131430950140E050E0812C912C5E016701E02E83
S11314408201B101C3010E949308CE010E943609B2
S113145081E001C08FEFDF91CF911F910F91FF9039
S1131460EF90DF90CF90BF90AF909F908F907F9040
S11314706F905F904F903F902F900895EF92FF925E
S11314800F930F2EF2EFEF2EF4E0FF2EF02D00E07D
S113149020E030E040E550E068EF70E08EED9BE046
S11314A00E94EA09813081F4F8948FEF9FEF9093C2
S11314B0F5048093F40481E08093FA041092FD040F
S11314C01092FC040E94E2040F91FF90EF900895A3
S11314D08091F1048F5F8093F1040895DF92EF927D
S11314E0FF920F931F93CF93DF938091F1048111A7
S11314F097C0E090FC04F090FD048FEFE81AF80A1E
S1131500F092FD04E092FC04E114F104B9F480913A
S11315101D0590911E0520911B0530911C053093EB
S11315201E0520931D0590931C0580931B05809137
S1131530F7048F5F8093F7040E9467088091F40496
S11315409091F504E816F90628F4D12C53C0DD2453
S1131550D39401C0D12CE0911D05F0911E0580812A
S1131560811107C08FEF9FEF9093F5048093F404EB
S113157041C0E0911D05F0911E050580F681E02D26
S1131580C681D7818A819B81E816F90628F4909355
S1131590F5048093F4042EC08E010E5F1F4FC80122
S11315A00E9447048C899D89892B21F0CE010C96D9
S11315B00E9447048E899091FB04981710F480933D
S11315C0FB0490E09C01220F331F220F331F220FD4
S11315D0331F820F931FB8018F5C9A4F0E94F5034B
S11315E09E89E0917005F09171058689981708F03D
S11315F0AECFB1CFE0917005F0917105868990E08E
S1131600FC01EE0FFF1FEE0FFF1FEE0FFF1F8E0FEB
S11316109F1FFC01EF5CFA4F8081823040F409C0C7
S11316208091F9048F5F8093F904D12C02C0DD24EA
S1131630D3948091F804882311F0DD24D3948D2D64
S1131640DF91CF911F910F91FF90EF90DF9008955C
S11316500F931F93CF93DF930FB6F8940F9280915B
S1131660F10481508093F1048091F104811158C0F8
S11316708091FE04811133C056C0E0911705F091AA
S11316801805C681D781CE010C960E9447048E01AD
S11316900E5F1F4FC8010E9447048E899091FB047E
S11316A0981710F48093FB0490E09C01220F331FE1
S11316B0220F331F220F331F820F931FB8018F5C39
S11316C09A4F0E94F5039E89E0917005F09171058F
S11316D08689981730F081E08093F80402C0C0E056
S11316E0D0E0809112058111C8CFCD2B11F00E945A
S11316F06708C091F904CC2359F00E946E0A88232C
S113170019F081E08093F804C150B9F71092F904FC
S11317108091F804882331F00E94110581E003C010
S113172080E001C080E00F900FBEDF91CF911F9148
S11317300F910895CF93DF93EC01892B49F00E9418
S1131740680A60E0CE010E9492090E94280B01C041
S113175080E0811102C00E941105DF91CF910895AC
S1131760CF93DF9324C00E94680AC09109050E94A8
S1131770280BCC23E1F00FB6F8940F92E0910E05FC
S1131780F0910F05C681D781CE0102960E944704CD
S11317908091FE0481508093FE048091080581505D
S11317A0809308050F900FBECE010E948608809199
S11317B008058111D8CFDF91CF9108950E94B00B15
S11317C0FDCF8091F104882321F081E08093F80417
S11317D008951092F8042091FB0401C02150822F37
S11317E090E0FC01EE0FFF1FEE0FFF1FEE0FFF1F37
S11317F0E80FF91FEF5CFA4F3081332379F3AC0122
S1131800440F551F440F551F440F551F480F591FB0
S1131810DF010180F281E02D0280F381E02D129638
S1131820FC93EE9311974C5C5A4FE417F50729F497
S113183042815381FD0152834183FC01EE0FFF1F5E
S1131840EE0FFF1FEE0FFF1F8E0F9F1FFC01EF5CBB
S1131850FA4F0180F281E02D868197819093710582
S1131860809370052093FB0408950F931F93CF93E7
S1131870DF93EC010FB6F8940F92892B21F4C091F9
S11318807005D09171058E010E5F1F4FC8010E9433
S113189047048C899D89892B21F0CE010C960E94E6
S11318A04704B8018FEF94E00E94F5030F900FBE38
S11318B08091FA04882339F00FB6F8940F920E94AD
S11318C067080F900FBE8091700590917105C8173D
S11318D0D907A1F48091FA04882319F00E94110514
S11318E00DC09091FF048091FE04981305C01092DE
S11318F071051092700502C00E94E10BDF91CF9137
S11319001F910F910895CF93DF93EB0160917005C0
S113191070917105645F7F4F0E94160461E0CE01EF
S11319200E949209DF91CF9108950F931F93CF9353
S1131930DF93DC011596ED91FC911697C681D78152
S11319408E01045F1F4FC8010E9447048091F10477
S113195081111CC00A501109C8010E9447048E89D4
S11319609091FB04981710F48093FB0490E09C0181
S1131970220F331F220F331F220F331F820F931F97
S1131980B8018F5C9A4F0E94F50305C0B80182E14B
S113199095E00E94F5039E89E0917005F091710530
S11319A08689891720F481E08093F80401C080E0DF
S11319B0DF91CF911F910F9108952091F704FC01BD
S11319C020832091FC043091FD0432832183089507
S11319D00FB6F8940F924091FC045091FD04DB0182
S11319E02D913C912F3FBFEF3B0719F1DC01FC9196
S11319F0E091F704FE1739F01196ED91FC911297DE
S1131A004E175F07C0F4DC011196ED91FC9112971B
S1131A10DA01AE1BBF0BA217B30778F4DB01E41B9A
S1131A20F50B2E0F3F1F2D933C930E94DD0C80E09D
S1131A3005C080E003C081E001C081E00F900FBECB
S1131A40089581E08093F80408950F931F93CF9332
S1131A50DF93FC01892B09F455C02689A0917005F8
S1131A60B091710556968C91281708F04BC0848567
S1131A709585992364F0A0917005B09171055696EF
S1131A803C9187E090E0831B910995878487828548
S1131A90938530E0A901440F551F440F551F440F8F
S1131AA0551F240F351F2F5C3A4F8217930719F5E2
S1131AB08F01EF012296CE010E944704E091700548
S1131AC0F09171058689F801868B9091FB04981733
S1131AD010F48093FB0490E09C01220F331F220F2B
S1131AE0331F220F331F820F931FBE018F5C9A4F47
S1131AF00E94F50307C0A0917005B0917105569638
S1131B008C91868BDF91CF911F910F9108950F9344
S1131B101F93CF93DF93FC01892B79F182A181502C
S1131B2082A3268991A1291751F181112AC0EF01BD
S1131B308F010E5F1F4FC8010E94470489A18E8B3D
S1131B4027E030E0281B31093D872C879091FB0466
S1131B50981710F48093FB0490E09C01220F331F2C
S1131B60220F331F220F331F820F931FB8018F5C84
S1131B709A4F0E94F50381E005C080E003C080E035
S1131B8001C080E0DF91CF911F910F910895809162
S1131B90700590917105892B39F0E0917005F091F1
S1131BA0710582A18F5F82A3809170059091710568
S1131BB008950F931F93CF93DF9300D000D0CDB738
S1131BC0DEB7082F84E0898385E08A8386E08B83EF
S1131BD087E08C8310E014C0402F50E0012E02C037
S1131BE0559547950A94E2F74170E1E0F0E0EC0F77
S1131BF0FD1FE10FF11D608180E00E94F50E1F5F63
S1131C00143050F30F900F900F900F90DF91CF91FD
S1131C101F910F91089541E062E081E00E94F50E6A
S1131C208FE39FE10197F1F700C0000040E062E01C
S1131C3081E00E94F50E0895CF93C82F41E060E043
S1131C4081E00E94F50E40E061E081E00E94F50E23
S1131C508C2F82958F700E94D90D0E940B0E8C2FB1
S1131C600E94D90D0E940B0ECF910895CF93C82FD7
S1131C7040E060E081E00E94F50E40E061E081E038
S1131C800E94F50E8C2F82958F700E94D90D0E94B0
S1131C900B0E8C2F0E94D90D0E940B0ECF9108952C
S1131CA02FEF83EF91E0215080409040E1F700C096
S1131CB0000082E00E94D90D0E940B0E82E00E9477
S1131CC0D90D0E940B0E88E00E94D90D0E940B0EC4
S1131CD08CE00E94360E81E00E94360E08950F9328
S1131CE01F93CF938C01C0E003C00E941C0ECF5FF2
S1131CF0F801EC0FF11D80818111F7CFCF911F9175
S1131D000F91089590E4699F800D112480680E94CA
S1131D10360E08951F93CF93DF93CDB7DEB72A977E
S1131D200FB6F894DEBF0FBECDBF611571058105F6
S1131D309105D1F480E30E941C0E2CC02AE030E00F
S1131D4040E050E00E945E11E1E0F0E0EC0FFD1F86
S1131D50E10FF11D17FDFA95605D6083622F732F0B
S1131D60842F952F1F5F01C010E061157105810557
S1131D70910521F711500CC0E1E0F0E0EC0FFD1FDC
S1131D80E10FF11D17FDFA9580810E941C0E115080
S1131D90112394F72A960FB6F894DEBF0FBECDBF79
S1131DA0DF91CF911F91089587B18F7787B987B15C
S1131DB0806487B986B1887F86B986B1876086B921
S1131DC086B1806886B9089597B1907E97B997B126
S1131DD0892B87B986B1806486B9349BFECF86B1DE
S1131DE0806186B984B195B10895423008F06FC01E
S1131DF04130A1F5813089F028F08230C9F0833078
S1131E0011F108952BB381E090E002C0880F991F6F
S1131E106A95E2F7822B8BBB089528B381E090E0AA
S1131E2002C0880F991F6A95E2F7822B88BB089538
S1131E3025B381E090E002C0880F991F6A95E2F70C
S1131E40822B85BB089522B381E090E002C0880F05
S1131E50991F6A95E2F7822B82BB0895411137C01E
S1131E60813091F028F08230D9F0833029F108953F
S1131E702BB381E090E002C0880F991F6A95E2F7C6
S1131E80809582238BBB089528B381E090E002C043
S1131E90880F991F6A95E2F78095822388BB08957D
S1131EA025B381E090E002C0880F991F6A95E2F79C
S1131EB08095822385BB089522B381E090E002C01F
S1131EC0880F991F6A95E2F78095822382BB089553
S1131ED0813041F028F0823039F0833039F00895B0
S1131EE06ABB089567BB089564BB089561BB0895F8
S1131EF093B7986093BF93B7906493BF93B790627E
S1131F0093BF93B79F7E93BF93B7987F93BF93B7C5
S1131F10936093BF682F70E080E090E00E942810E7
S1131F2023E333E343E250E40E9491100E94F70F4D
S1131F306CBF08951F920F920FB60F9211242F9326
S1131F403F934F935F936F937F938F939F93AF933D
S1131F50BF93EF93FF93E0917205F0917305099598
S1131F60FF91EF91BF91AF919F918F917F916F916D
S1131F705F914F913F912F910F900FBE0F901F9043
S1131F8018951F920F920FB60F9211242F933F931F
S1131F904F935F936F937F938F939F93AF93BF936D
S1131FA0EF93FF93E0917405F09175050995FF9106
S1131FB0EF91BF91AF919F918F917F916F915F91BD
S1131FC04F913F912F910F900FBE0F901F90189536
S1131FD086E880BD87E689B98AB188608AB98AB102
S1131FE080618AB908955F9BFECF8CB108950E94E9
S1131FF06B1088F09F5798F0B92F9927B751B0F01C
S1132000E1F0660F771F881F991F1AF0BA95C9F778
S113201014C0B13091F00E948510B1E008950C9481
S11320208510672F782F8827B85F39F0B93FCCF334
S1132030869577956795B395D9F73EF490958095F5
S1132040709561957F4F8F4F9F4F0895E89409C015
S113205097FB3EF490958095709561957F4F8F4FD7
S11320609F4F9923A9F0F92F96E9BB279395F695ED
S1132070879577956795B795F111F8CFFAF4BB0F6B
S113208011F460FF1BC06F5F7F4F8F4F9F4F16C0CF
S1132090882311F096E911C0772321F09EE8872F59
S11320A0762F05C0662371F096E8862F70E060E015
S11320B02AF09A95660F771F881FDAF7880F96958E
S11320C0879597F9089557FD9058440F551F59F077
S11320D05F3F71F04795880F97FB991F61F09F3F11
S11320E079F087950895121613061406551FF2CF3A
S11320F04695F1DF08C0161617061806991FF1CF8A
S113210086957105610508940895E894BB276627B0
S11321107727CB0197F908950E94FE1008F48FEFFA
S113212008950E94A4100C9439110E942B1138F0C8
S11321300E94321120F0952311F00C9422110C947A
S1132140281111240C9486100E94631070F3959F3B
S1132150C1F3950F50E0551F629FF001729FBB279A
S1132160F00DB11D639FAA27F00DB11DAA1F649F36
S11321706627B00DA11D661F829F2227B00DA11DE9
S1132180621F739FB00DA11D621F839FA00D611D6F
S1132190221F749F3327A00D611D231F849F600D90
S11321A0211D822F762F6A2F11249F5750409AF0B9
S11321B0F1F088234AF0EE0FFF1FBB1F661F771F45
S11321C0881F91505040A9F79E3F510580F00C9410
S11321D022110C9486105F3FE4F3983ED4F3869565
S11321E077956795B795F795E7959F5FC1F7FE2BB0
S11321F0880F911D9695879597F90895990F000872
S1132200550FAA0BE0E8FEEF16161706E807F907C4
S1132210C0F012161306E407F50798F0621B730B5F
S1132220840B950B39F40A2661F0232B242B252BE0
S113223021F408950A2609F4A140A6958FEF811D83
S1132240811D089597F99F6780E870E060E0089524
S11322509FEF80EC089500240A94161617061806BA
S11322600906089500240A94121613061406050696
S11322700895092E0394000C11F4882352F0BB0F27
S113228040F4BF2B11F460FF04C06F5F7F4F8F4F8A
S11322909F4F0895AA1BBB1B51E107C0AA1FBB1F78
S11322A0A617B70710F0A61BB70B881F991F5A95DE
S11322B0A9F780959095BC01CD010895A1E21A2E4D
S11322C0AA1BBB1BFD010DC0AA1FBB1FEE1FFF1FD6
S11322D0A217B307E407F50720F0A21BB30BE40B26
S11322E0F50B661F771F881F991F1A9469F760956D
S11322F07095809590959B01AC01BD01CF01089527
S1132300FB01DC0104C08D910190801921F441503E
S11323105040C8F7881B990B0895FB01DC0102C0EB
S113232001900D9241505040D8F70895F894FFCF92
S113233031383532E70354454D50200057454C435E
S11323404F4D4520200057524F4E47205041535384
S1132350574F5244210020202020202020202020DC
S11323602020202020004E4F204C414D5073004F20
S11323704E45204C414D500054574F204C414D5038
S1132380002046414E2000252000252020004C4DF1
S113239033350053637265656E005465726D696E02
S11323A0616C0046414E004C44520053414D4F2055
S11323B0334C4545454B4F00454E54455220504102
S11123C05353574F5244210049444C450000EA
S9030000FC
