S0120000536D6172745F486F6D652E7372656323
S11300000C942A000C9447000C9447000C9447006D
S11300100C9447000C9447000C9447000C94E90599
S11300200C9447000C9447000C9413120C94EC119C
S11300300C9447000C9447000C9447000C94470020
S11300400C9447000C9447000C9447000C94470010
S11300500C94470011241FBECFE5D8E0DEBFCDBF0E
S113006012E0A0E6B0E0E6EDF8E202C005900D92E1
S1130070A432B107D9F726E0A4E2B2E001C01D9290
S1130080A23AB207E1F70E94B0020C9469140C94EE
S11300900000CF93DF9300D000D0CDB7DEB7198234
S11300A01A821B821C8220E044E650E060E070E08B
S11300B08091A0069091A1060E94C9078130E1F5C4
S11300C0809124028823C1F180E00E943211BC0196
S11300D080E090E00E94EA1220E030E04AEF53E42E
S11300E00E94551320E030E040E85AE30E94551383
S11300F069837A838B839C8320E044E650E0BE01CD
S11301006F5F7F4F80919E0690919F060E943707F4
S113011061E080E00E94D01082E690E00E94BD1071
S113012061E085E00E94D01069817A818B819C8195
S11301300E94BB120E94D81020E040E050E060E032
S113014070E08091A0069091A1060E94370784E692
S113015090E00E94BD0BA7CFCF93DF9300D000D0D7
S1130160CDB7DEB720E044E650E060E070E0809177
S1130170A0069091A1060E94C907813099F788E6EC
S113018090E00E944C1200E00EC0FF24F394F00EA5
S113019010E00E94B712E1E0F0E0EC0FFD1FE00F69
S11301A0F11F80830F2D043080F3CE0101960E944D
S11301B0510F182F0E94880E113059F460E080E02E
S11301C00E94D01089E790E00E94BD100E94C00FE9
S11301D027C01230D9F460E080E00E94D01084E897
S11301E090E00E94BD1081E08093240220E044E668
S11301F050E064E272E080919C0690919D060E941A
S1130200370780E090E00E94580C0AC060E080E06C
S11302100E94D010612F70E080E090E00E94D8101E
S113022020E040E050E060E070E08091A006909112
S1130230A1060E94370796CFCF93DF931F92CDB7C5
S1130240DEB720E044E650E060E070E08091A00674
S11302509091A1060E94C907813099F720E044E6F5
S113026050E0BE016F5F7F4F80919C0690919D0688
S11302700E94C907813041F58981813081F48093DE
S1130280240241E064E083E00E94431160E080E0E6
S11302900E94D0108EE890E00E94BD1015C060E06E
S11302A080E00E94D01088E990E00E94BD1061E0D7
S11302B080E00E94D01088EA90E00E94BD1041E0E6
S11302C065E083E00E94431120E040E050E060E0FC
S11302D070E08091A0069091A1060E94370780E00B
S11302E090E00E94580CADCF20E044E650E060E07E
S11302F070E08091A0069091A1060E94C907813008
S113030009F05AC080912402882309F455C081E081
S11303100E9432119C01220F331F220F331F820FC0
S1130320931F6FEF73E00E940E146430710598F010
S113033060E088E00E94D01088EB90E00E94BD103D
S113034040E066E082E00E94431140E067E082E022
S11303500E94431131C080E090E00E94EA1220E044
S113036030E040EC5FE30E94501318169CF460E008
S113037088E00E94D01081EC90E00E94BD1041E022
S113038066E082E00E94431140E067E082E00E9460
S1130390431112C060E088E00E94D0108AEC90E023
S11303A00E94BD1041E066E082E00E94431141E0FA
S11303B067E082E00E94431120E040E050E060E00A
S11303C070E08091A0069091A1060E94370784E610
S11303D090E00E94BD0B88CFCF93DF9300D000D074
S11303E0CDB7DEB719821A821B821C8220E044E654
S11303F050E060E070E08091A0069091A1060E9418
S1130400C907813009F09CC080912402882309F433
S113041097C020E044E650E0BE016F5F7F4F8091BB
S11304209E0690919F060E94C907C980DA80EB80DE
S1130430FC8020E030E04CE052E4C701B6010E94A9
S113044050131816D4F484E690E00E94CA1161E0B7
S113045087E00E94D01083ED90E00E94BD1061E01F
S11304608CE00E94D01064E670E080E090E00E948E
S1130470D81085E20E946A1063C020E030E040EFAB
S113048051E4C701B6010E9450131816DCF486E447
S113049090E00E94CA1161E087E00E94D01083EDD1
S11304A090E00E94BD1061E08CE00E94D01066E4F0
S11304B070E080E090E00E94D81089ED90E00E9406
S11304C0BD103EC020E030E048EC51E4C701B60165
S11304D00E9450131816DCF48EE190E00E94CA11B9
S11304E061E087E00E94D01083ED90E00E94BD108F
S11304F061E08CE00E94D0106EE170E080E090E05A
S11305000E94D81089ED90E00E94BD1019C080E0CF
S113051090E00E94CA1161E087E00E94D01083ED50
S113052090E00E94BD1061E08CE00E94D01060E079
S113053070E0CB010E94D8108CED90E00E94BD10B9
S113054020E040E050E060E070E08091A0069091EF
S1130550A1060E94370784E690E00E94BD0B46CFB7
S1130560EF92FF920F9360EF80E00E94B6116FEF5D
S113057081E00E94B6116FEF82E00E94B61160EF35
S113058083E00E94B611E12CF12C05E020E030E07C
S113059044E650E060EE70E089E490E00E940D0AC9
S11305A006E020E030E044E650E065EE70E08CE1E7
S11305B091E00E940D0A07E020E030E044E650E0BC
S11305C06CEE70E08CEA90E00E940D0A04E020E0FA
S11305D030E044E650E065EF70E08CEE91E00E947C
S11305E00D0A03E020E030E044E650E069EF70E0FB
S11305F084E791E00E940D0A0E94C61180E895E20A
S11306000E943A120E949E100E9422110E94FC0D28
S11306100E94230E43E060E081E00E940D07909366
S1130620A1068093A00620E040E050E060E070E086
S11306300E94370740E064E081E00E940D07909338
S11306409F0680939E0640E061E081E00E940D07D2
S113065090939D0680939C0661E080E00E94D010F8
S11306608DEF90E00E94BD100E94610A80E090E04E
S11306700F91FF90EF900895EAE2F2E08FE292E0AA
S11306809183808313821282E6E2F2E087EE93E0A4
S11306909383828311821082AEE2B2E014969C931B
S11306A08E9313971296FC93EE93119708950F93DC
S11306B01F93CF93DF93EC010E948B0A8091250254
S11306C0811105C00E943C0381E08093250220979C
S11306D009F02496CE010197863E934008F056C057
S11306E0E0912A02F0912B02AAE2B2E002C0DF01FB
S11306F0FC01828193818C179D0720F48081918174
S11307000097A9F782E0E632F80709F442C00D9198
S11307101C9111970C5F1F4F808191818D939C9345
S1130720828193818C1B9D0B8930910510F1AF015F
S11307304C0F5D1FDA0113969C938E931297D3830B
S1130740C28312962D913C9113976AE272E001C024
S1130750BD01EB01A881B98112968D919C911397EB
S113076082179307A8F3EA01B983A883DB014D93A9
S11307705C93228133818091600090916100821B9F
S1130780930B909361008093600005C000E010E03B
S113079002C000E010E00E944B0BC801DF91CF9132
S11307A01F910F9108950F931F93CF93DF93009799
S11307B041F1EC018C01045011090E948B0AF801EB
S11307C042815381AAE2B2E001C0DF01ED91FC91C4
S11307D011972281338124173507B8F32497F983BD
S11307E0E8830D931C938A819B8120916000309152
S11307F06100820F931F90936100809360000E94B8
S11308004B0BDF91CF911F910F910895FC0103963B
S1130810928381832FEF3FEF3483238396838583F1
S11308209087878310820895FC01118610860895AD
S1130830CF93DF939C01FB01DC011196CD91DC91F8
S11308401297D383C2838C819D81958384838C8109
S11308509D81DC0113967C936E9312977D836C8348
S113086031872087F90180818F5F8083DF91CF9169
S11308700895CF93DF93EB01488159814F3F2FEFC8
S1130880520721F4FC01A781B0850DC0DC01139649
S113089001C0DF011296ED91FC9113972081318103
S11308A042175307B0F71296ED91FC911397FB830F
S11308B0EA83D583C483BD83AC831396DC93CE9340
S11308C0129799878887FC0120812F5F2083DF910D
S11308D0CF910895CF93DF93FC01A085B185C281A8
S11308E0D381848195819D838C83C481D5818281C8
S11308F093819B838A8311968D919C911297E8171B
S1130900F90731F48481958112969C938E93119703
S1130910118610868C9181508C93DF91CF9108952C
S11309201BBC89EF8ABD8BE08EBD89B7806189BF0E
S1130930089531E1FC013083319722E2208331971D
S1130940A3E3A0833197608331977083319710823A
S1130950319760E8608331971082319762E0608359
S1130960319763E06083319764E06083319765E099
S11309706083319766E06083319767E060833197E5
S113098068E06083319769E06083319760E1608358
S113099031973083319732E13083319733E13083BB
S11309A0319734E13083319735E13083319736E143
S11309B03083319737E13083319738E13083319791
S11309C039E13083319730E23083319731E230833B
S11309D031972083319723E22083319740833197E5
S11309E05083319726E22083319727E22083319781
S11309F028E22083319729E22083319720E3208362
S1130A00319721E32083869708950E949004A09152
S1130A109506B0919606CD91CDBFDD91DEBFFF91D5
S1130A20EF91DF91CF91BF91AF919F918F917F9182
S1130A306F915F914F913F912F911F910F91FF9073
S1130A40EF90DF90CF90BF90AF909F908F907F906A
S1130A506F905F904F903F902F901F900F900FBE1C
S1130A600F90089581E008950F920FB6F8940F92B5
S1130A701F9211242F923F924F925F926F927F9216
S1130A808F929F92AF92BF92CF92DF92EF92FF929A
S1130A900F931F932F933F934F935F936F937F9382
S1130AA08F939F93AF93BF93CF93DF93EF93FF9372
S1130AB0A0919506B09196060DB60D920EB60D92C4
S1130AC00E94040CA0919506B0919606CD91CDBFDD
S1130AD0DD91DEBFFF91EF91DF91CF91BF91AF9197
S1130AE09F918F917F916F915F914F913F912F9142
S1130AF01F910F91FF90EF90DF90CF90BF90AF9038
S1130B009F908F907F906F905F904F903F902F9029
S1130B101F900F900FBE0F9008950F920FB6F89488
S1130B200F921F9211242F923F924F925F926F92D5
S1130B307F928F929F92AF92BF92CF92DF92EF9269
S1130B40FF920F931F932F933F934F935F936F9352
S1130B507F938F939F93AF93BF93CF93DF93EF9341
S1130B60FF93A0919506B09196060DB60D920EB620
S1130B700D920E94910A81110E94040CA091950685
S1130B80B0919606CD91CDBFDD91DEBFFF91EF917F
S1130B90DF91CF91BF91AF919F918F917F916F9191
S1130BA05F914F913F912F911F910F91FF90EF9083
S1130BB0DF90CF90BF90AF909F908F907F906F9079
S1130BC05F904F903F902F901F900F900FBE0F900B
S1130BD008950E948D0518950FB6F8940F92FC01A4
S1130BE0828D811102C081E001C080E00F900FBEB0
S1130BF008950FB6F8940F92FC01228D838D28136B
S1130C0002C081E001C080E00F900FBE08950F93F1
S1130C101F93CF93DF93EC01042F1A8D4C8D411158
S1130C200CC088819981892B09F042C08A819B81FB
S1130C300E94AA0D1B821A8242C0011117C050E003
S1130C408C819D810E9460142C8D8C819D81820FEA
S1130C50911D9D838C832A813B818217930750F1D8
S1130C60888199819D838C8380E029C050E08E81A6
S1130C709F810E9460148C8D90E0919581959109DB
S1130C802E813F81280F391F3F832E83488159814C
S1130C902417350730F42A813B81820F931F9F83E9
S1130CA08E83023049F4112349F0115080E007C0CB
S1130CB080E005C080E003C080E001C080E01F5FE9
S1130CC01A8FDF91CF911F910F910895FC01448DEC
S1130CD04423A9F050E026813781240F351F378340
S1130CE02683828193812817390720F0808191819E
S1130CF097838683CB01668177810E94601408956F
S1130D001F93CF93DF93EC010FB6F8940F921E8DCF
S1130D100BC08989882351F0CE0141960E94B80CFA
S1130D2081110E94440D115011169CF38FEF8E8F88
S1130D300F900FBE0FB6F8940F921D8D0BC08885CF
S1130D40882351F0CE0108960E94B80C81110E94AC
S1130D50440D115011169CF38FEF8D8F0F900FBE21
S1130D60DF91CF911F910895CF93DF93EC010FB6DC
S1130D70F8940F92E881F9818B8D90E02C8D30E00E
S1130D80829FA001839F500D929F500D11244E0FFE
S1130D905F1F5B834A831A8EFD83EC830197289F30
S1130DA0A001299F500D389F500D1124CF01840FAD
S1130DB0951F9F838E838FEF8D8F8E8F61110CC053
S1130DC08885882389F0CE0108960E94B80C882370
S1130DD059F00E94340508C0CE0108960E9406040A
S1130DE0CE0141960E9406040F900FBE81E0DF9170
S1130DF0CF9108950F931F93F801611103C01183DC
S1130E00008302C051834083838F648F61E0CF01EC
S1130E100E94B4061F910F910895DF92EF92FF9202
S1130E200F931F93CF93DF93E82EF62ED42E6623D1
S1130E3021F0869FC001112402C080E090E04F960B
S1130E400E945703EC01009749F08C012D2DAC0151
S1130E50415E5F4F6F2D8E2D0E94FA06CE01DF9109
S1130E60CF911F910F91FF90EF90DF900895CF9253
S1130E70DF92EF92FF920F931F93CF93DF9300D0F3
S1130E8000D01F92CDB7DEB78C017B015D834C830C
S1130E90C22ED12C0FB6F8940F92F801928D838D47
S1130EA0981718F0F2E0CF1219C04C2DB701C80101
S1130EB00E940706F8019189992349F0C8014196D7
S1130EC00E94B80C882331F00E94340503C08111BC
S1130ED00E9434050F900FBE81E04DC08C819D812E
S1130EE0892B21F40F900FBE80E045C0D11006C0BD
S1130EF0CE0101960E94000DDD24D3940F900FBE05
S1130F000E948B0A0FB6F8940F92F801858D8F3FDB
S1130F1009F4158EF801868D8F3F09F4168E0F9013
S1130F200FBEBE016C5F7F4FCE0101960E940B0D78
S1130F3081111BC0C8010E94F905882381F06C81CE
S1130F407D81C80108960E94A60CC8010E948006F3
S1130F500E944B0B81119ECF0E9434059BCFC80188
S1130F600E9480060E944B0B95CFC8010E94800608
S1130F700E944B0B80E00F900F900F900F900F90FA
S1130F80DF91CF911F910F91FF90EF90DF90CF9061
S1130F9008958F929F92BF92CF92DF92EF92FF9229
S1130FA00F931F93CF93DF9300D000D01F92CDB740
S1130FB0DEB78C016B015D834C83B22EE12C0FB63E
S1130FC0F8940F92F801F28CFF2091F186809780BB
S1130FD0B601C8010E946606B11019C0FA94F8015E
S1130FE0F28E80819181892B29F40E94EA0DF80107
S1130FF093838283F80180858823B1F0C801089621
S11310000E94B80C882381F00E9434050DC0F801B9
S1131010978286828189882339F0C80141960E948B
S1131020B80C81110E9434050F900FBE81E061C09D
S11310308C819D81892B21F40F900FBE80E059C0D3
S1131040E11006C0CE0101960E94000DEE24E39447
S11310500F900FBE0E948B0A0FB6F8940F92F801FE
S1131060858D8F3F09F4158EF801868D8F3F09F425
S1131070168E0F900FBEBE016C5F7F4FCE0101969E
S11310800E940B0D811129C0C8010E94EC05882320
S1131090F1F0F80180819181892B49F40FB6F8941D
S11310A00F92828193810E94480D0F900FBE6C8134
S11310B07D81C80141960E94A60CC8010E94800649
S11310C00E944B0B81117BCF0E94340578CFC8015D
S11310D00E9480060E944B0B72CFC8010E948006BA
S11310E00E944B0BC8010E94EC05882309F467CFCA
S11310F080E00F900F900F900F900F90DF91CF91A1
S11311001F910F91FF90EF90DF90CF90BF909F9031
S11311108F900895E0914206F091430680818111F9
S113112007C08FEF9FEF90931A06809319060895D6
S1131130E0914206F09143060580F681E02D068099
S1131140F781E02D8281938190931A06809319068A
S11311500895CF93DF93EC018F89988D0E94D30378
S1131160CE010E94D303DF91CF9108956F927F92B5
S11311708F929F92AF92BF92CF92DF92EF920F9392
S11311801F93CF93DF93CDB7DEB74C01F501878969
S1131190908D215031093C01620E731E20E00FC076
S11311A0822F90E0FB01E80FF91F3081D501A80FD1
S11311B0B91F59963C938081882319F02F5F2830FA
S11311C078F3F50110A2F6E0FE1520F40F2EF6E0F8
S11311D0EF2EF02DF501E68AE1A212A2C5010296D6
S11311E00E941404C5010C960E941404F501B186F2
S11311F0A08687E090E08E19910995878487B38A49
S1131200A28A13A214A215A216A217A2A801B401BD
S1131210C3010E949904F50191838083C114D10410
S113122019F0F601B182A082DF91CF911F910F9145
S1131230EF90DF90CF90BF90AF909F908F907F9072
S11312406F900895CF93C0E010C08C2F90E09C0164
S1131250220F331F220F331F220F331F820F931FBE
S11312608A5A994F0E940604CF5FC73070F38DE409
S113127096E00E94060484E496E00E94060487E354
S113128096E00E9406048EE296E00E94060484E240
S113129096E00E9406048DE496E0909343068093C2
S11312A0420684E496E09093410680934006CF91F1
S11312B00895CF93DF93EC010FB6F8940F928091C9
S11312C023068F5F8093230680919506909196065E
S11312D0892B59F4D0939606C093950680912306E2
S11312E0813099F40E94220910C080911F06811157
S11312F00CC0E0919506F091960696898E8989171F
S113130020F0D0939606C093950680911B068F5FBC
S113131080931B068E8990912006981710F4809371
S1131320200690E09C01220F331F220F331F220F4F
S1131330331F820F931FBE016E5F7F4F8A5A994FEE
S11313400E9418040F900FBE80911F06882351F04D
S1131350E0919506F091960696898E89981710F477
S11313600E943405DF91CF910895FF920F931F934C
S1131370CF93DF93EC01F62E009121061091220603
S1131380809195069091960602960E946A04CF3F3A
S11313908FEFD80769F4FF2059F06091950670919A
S11313A096066E5F7F4F84E296E00E9418042FC079
S11313B0C00FD11FE0919506F0919606D383C283A6
S11313C0C017D10768F460919506709196068091D4
S11313D04006909141066E5F7F4F0E94390417C00A
S11313E0609195067091960680914206909143060D
S11313F06E5F7F4F0E9439048091190690911A06FE
S1131400C817D90720F4D0931A06C0931906DF91A0
S1131410CF911F910F91FF9008952F923F924F9279
S11314205F926F927F928F929F92AF92BF92CF9270
S1131430DF92EF92FF920F931F93CF93DF933C01C0
S11314401B015A012901CA010E9457036C01892B0F
S113145071F088E290E00E945703EC01892B19F0A7
S1131460D88ECF8A06C0C6010E94D30302C0C0E052
S1131470D0E0209791F0950140E050E0812C912C30
S11314805E016701E02E8201B101C3010E94B6082A
S1131490CE010E94590981E001C08FEFDF91CF9105
S11314A01F910F91FF90EF90DF90CF90BF90AF907E
S11314B09F908F907F906F905F904F903F902F9070
S11314C00895EF92FF920F930F2EF7E1EF2EF6E0BF
S11314D0FF2EF02D00E020E030E040E550E06DE02C
S11314E071E081E09CE00E940D0A813081F4F8945F
S11314F08FEF9FEF90931A068093190681E08093F3
S11315001F0610922206109221060E9405050F91D3
S1131510FF90EF900895809116068F5F80931606D2
S11315200895DF92EF92FF920F931F93CF93DF936F
S113153080911606811197C0E0902106F090220652
S11315408FEFE81AF80AF0922206E0922106E114DD
S1131550F104B9F48091420690914306209140062B
S113156030914106309343062093420690934106FE
S11315708093400680911C068F5F80931C060E9416
S11315808A088091190690911A06E816F90628F43B
S1131590D12C53C0DD24D39401C0D12CE091420658
S11315A0F09143068081811107C08FEF9FEF9093E4
S11315B01A068093190641C0E0914206F091430651
S11315C00580F681E02DC681D7818A819B81E8164A
S11315D0F90628F490931A06809319062EC08E01FA
S11315E00E5F1F4FC8010E946A048C899D89892B54
S11315F021F0CE010C960E946A048E8990912006F7
S1131600981710F48093200690E09C01220F331F5A
S1131610220F331F220F331F820F931FB8018A5AE0
S1131620994F0E9418049E89E0919506F0919606C0
S11316308689981708F0AECFB1CFE0919506F09166
S11316409606868990E0FC01EE0FFF1FEE0FFF1F48
S1131650EE0FFF1F8E0F9F1FFC01EA5AF94F808186
S1131660823040F409C080911E068F5F80931E066D
S1131670D12C02C0DD24D39480911D06882311F05F
S1131680DD24D3948D2DDF91CF911F910F91FF9085
S1131690EF90DF9008950F931F93CF93DF930FB6CE
S11316A0F8940F92809116068150809316068091CB
S11316B01606811158C080912306811133C056C08B
S11316C0E0913C06F0913D06C681D781CE010C968F
S11316D00E946A048E010E5F1F4FC8010E946A04B3
S11316E08E8990912006981710F48093200690E03C
S11316F09C01220F331F220F331F220F331F820F2F
S1131700931FB8018A5A994F0E9418049E89E09148
S11317109506F09196068689981730F081E08093BB
S11317201D0602C0C0E0D0E0809137068111C8CF09
S1131730CD2B11F00E948A08C0911E06CC2359F0CB
S11317400E94910A882319F081E080931D06C150FC
S1131750B9F710921E0680911D06882331F00E946D
S1131760340581E003C080E001C080E00F900FBE2B
S1131770DF91CF911F910F910895CF93DF93EC01E7
S1131780892B49F00E948B0A60E0CE010E94B509C2
S11317900E944B0B01C080E0811102C00E943405FD
S11317A0DF91CF910895CF93DF9324C00E948B0AD9
S11317B0C0912E060E944B0BCC23E1F00FB6F89497
S11317C00F92E0913306F0913406C681D781CE01A1
S11317D002960E946A048091230681508093230616
S11317E080912D06815080932D060F900FBECE015F
S11317F00E94A90880912D068111D8CFDF91CF9145
S113180008950E94D30BFDCF80911606882321F002
S113181081E080931D06089510921D0620912006F4
S113182001C02150822F90E0FC01EE0FFF1FEE0F4C
S1131830FF1FEE0FFF1FE80FF91FEA5AF94F30811F
S1131840332379F3AC01440F551F440F551F440F44
S1131850551F480F591FDF010180F281E02D0280DE
S1131860F381E02D1296FC93EE931197475A594F4A
S1131870E417F50729F442815381FD015283418322
S1131880FC01EE0FFF1FEE0FFF1FEE0FFF1F8E0F69
S11318909F1FFC01EA5AF94F0180F281E02D8681F5
S11318A09781909396068093950620932006089539
S11318B00F931F93CF93DF93EC010FB6F8940F921D
S11318C0892B21F4C0919506D09196068E010E5F66
S11318D01F4FC8010E946A048C899D89892B21F0BD
S11318E0CE010C960E946A04B80184E296E00E943C
S11318F018040F900FBE80911F06882339F00FB68D
S1131900F8940F920E948A080F900FBE809195065A
S113191090919606C817D907A1F480911F068823D1
S113192019F00E9434050DC090912406809123067D
S1131930981305C0109296061092950602C00E9454
S1131940040CDF91CF911F910F910895CF93DF93F2
S1131950EB016091950670919606645F7F4F0E943B
S1131960390461E0CE010E94B509DF91CF91089559
S11319700F931F93CF93DF93DC011596ED91FC91A8
S11319801697C681D7818E01045F1F4FC8010E943C
S11319906A048091160681111CC00A501109C801FD
S11319A00E946A048E8990912006981710F48093FF
S11319B0200690E09C01220F331F220F331F220FB9
S11319C0331F820F931FB8018A5A994F0E9418043B
S11319D005C0B80187E396E00E9418049E89E0914F
S11319E09506F09196068689891720F481E0809304
S11319F01D0601C080E0DF91CF911F910F910895E2
S1131A0020911C06FC01208320912106309122069E
S1131A103283218308950FB6F8940F9240912106E2
S1131A2050912206DB012D913C912F3FBFEF3B07E4
S1131A3019F1DC01FC91E0911C06FE1739F01196B6
S1131A40ED91FC9112974E175F07C0F4DC011196DB
S1131A50ED91FC911297DA01AE1BBF0BA217B307ED
S1131A6078F4DB01E41BF50B2E0F3F1F2D933C9301
S1131A700E94000D80E005C080E003C081E001C049
S1131A8081E00F900FBE089581E080931D060895B4
S1131A900F931F93CF93DF93FC01892B09F455C057
S1131AA02689A0919506B091960656968C91281792
S1131AB008F04BC084859585992364F0A091950620
S1131AC0B091960656963C9187E090E0831B91096D
S1131AD0958784878285938530E0A901440F551F3B
S1131AE0440F551F440F551F240F351F2A5A394FD1
S1131AF08217930719F58F01EF012296CE010E94F8
S1131B006A04E0919506F09196068689F801868B21
S1131B1090912006981710F48093200690E09C0181
S1131B20220F331F220F331F220F331F820F931FE5
S1131B30BE018A5A994F0E94180407C0A0919506C5
S1131B40B091960656968C91868BDF91CF911F911A
S1131B500F9108950F931F93CF93DF93FC01892B6B
S1131B6079F182A1815082A3268991A1291751F18B
S1131B7081112AC0EF018F010E5F1F4FC8010E941F
S1131B806A0489A18E8B27E030E0281B31093D8748
S1131B902C8790912006981710F48093200690E0EB
S1131BA09C01220F331F220F331F220F331F820F7A
S1131BB0931FB8018A5A994F0E94180481E005C006
S1131BC080E003C080E001C080E0DF91CF911F91ED
S1131BD00F9108958091950690919606892B39F07E
S1131BE0E0919506F091960682A18F5F82A3809181
S1131BF0950690919606089588E480B911B884E01A
S1131C0086BF089594EA96BF06B607FEFDCF8E7F81
S1131C1083B984E886BF06B607FEFDCF73B984E8AE
S1131C2086BF06B607FEFDCF63B984E886BF06B655
S1131C3007FEFDCF43B984E886BF06B607FEFDCF95
S1131C4084E986BF08950F931F93CF93DF9300D049
S1131C5000D0CDB7DEB781E3898382E38A8383E34F
S1131C608B8384E38C8310E01AC0612F70E0E1E081
S1131C70F0E0EC0FFD1FE60FF71F0081402F80E519
S1131C800E94020E82E191E00E944C12802F90E0AB
S1131C900E9456128AE090E00E9456121F5F143090
S1131CA020F30F900F900F900F90DF91CF911F9121
S1131CB00F91089594EA96BF06B607FEFDCF982FBC
S1131CC09E7F93B994E896BF06B607FEFDCF73B91D
S1131CD094E896BF06B607FEFDCF63B994E896BFB5
S1131CE006B607FEFDCF94EA96BF06B607FEFDCF03
S1131CF0816083B984E886BF06B607FEFDCF84E819
S1131D0086BF06B607FEFDCF83B194E996BF08955A
S1131D100F931F93CF93DF938CE191E00E944C12B9
S1131D20C0E01CC00C2F10E0B80180E50E945A0EE0
S1131D30D82F85E391E00E944C12C801C0960E94FE
S1131D40561287E991E00E944C128D2F90E00E9478
S1131D505A1280E290E00E945612CF5FC43010F312
S1131D608AE090E00E945612DF91CF911F910F916B
S1131D700895EF92FF920F931F93CF93909197063C
S1131D80963050F58B01482F692F70E0CB01880FF6
S1131D90991F880F991F680F791F605F7F4F7B0120
S1131DA080E50E94020EC0E00EC06C2F70E0F801C6
S1131DB0E60FF71F6E0D7F1D6F5F7F4F408180E53B
S1131DC00E94020ECF5FC43080F3809197068F5F2C
S1131DD08093970681E001C080E0CF911F910F911D
S1131DE0FF90EF900895EF92FF920F931F93CF937C
S1131DF0DF93C82F00E048C0602F70E0CB01880F4C
S1131E00991F880F991F680F791F605F7F4F80E5C6
S1131E100E945A0E8C1337C027C0CE010196BC0114
S1131E20660F771F660F771F680F791F605F7F4FFC
S1131E30E12EF12C6E0D7F1D80E50E945A0EBE012D
S1131E40660F771F660F771F6C0F7D1F605F7F4FD4
S1131E506E0D7F1D482F80E50E94020E1F5F01C09A
S1131E6010E01530D0F20F5FC02FD0E0209197061C
S1131E70822F90E00197C817D90794F3215020933B
S1131E80970681E007C00F5F80919706081708F452
S1131E90B3CF80E0DF91CF911F910F91FF90EF902E
S1131EA00895AF92BF92CF92DF92EF92FF920F9379
S1131EB01F93CF93DF9300D000D0CDB7DEB75C0182
S1131EC0F12C0EC00F2D10E0B80180E50E945A0ECF
S1131ED0E1E0F0E0EC0FFD1FE00FF11F8083F394CD
S1131EE083E08F1578F744E050E0B501CE01019608
S1131EF00E945314892B91F1E12C2BC0CE2CD12CB0
S1131F00C601880F991F880F991FC80ED91E81E139
S1131F10C80ED11CF12C10C00F2D10E0B601600FBB
S1131F20711F80E50E945A0EE1E0F0E0EC0FFD1F06
S1131F30E00FF11F8083F39483E08F1568F744E08A
S1131F4050E0B501CE0101960E945314892B41F053
S1131F50E39485E08E1590F680E003C081E001C033
S1131F6082E00F900F900F900F90DF91CF911F910F
S1131F700F91FF90EF90DF90CF90BF90AF900895B6
S1131F80EF92FF920F931F93CF93DF9300D000D073
S1131F90CDB7DEB78BE391E00E944C120E94B712DA
S1131FA0813369F58AE691E00E944C120E94B712CF
S1131FB0082F8AE791E00E944C1210E00CC0E12E39
S1131FC0F12C0E94B712E1E0F0E0EC0FFD1FEE0DE2
S1131FD0FF1D80831F5F143090F3BE016F5F7F4F3E
S1131FE0802F0E94B90E882329F08AE991E00E948B
S1131FF04C12D0CF83EB91E00E944C12CBCF8233B2
S1132000A1F487EC91E00E944C120E94B7120E9446
S1132010F30E882329F081EE91E00E944C12BACF8E
S11320208CEF91E00E944C12B5CF833309F0B2CF0C
S11320308CE092E00E944C120F900F900F900F9042
S1132040DF91CF911F910F91FF90EF9008950F931F
S11320501F93CF93DF9300D000D0CDB7DEB7082F06
S113206084E0898385E08A8386E08B8387E08C83A0
S113207010E014C0402F50E0012E02C05595479542
S11320800A94E2F74170E1E0F0E0EC0FFD1FE10F8C
S1132090F11D608180E00E9443111F5F143050F3F2
S11320A00F900F900F900F90DF91CF911F910F9190
S11320B0089541E062E081E00E9443118FE39FE1D3
S11320C00197F1F700C0000040E062E081E00E9467
S11320D043110895CF93C82F41E060E081E00E944E
S11320E0431140E061E081E00E9443118C2F82950E
S11320F08F700E9427100E9459108C2F0E94271065
S11321000E945910CF910895CF93C82F40E060E00A
S113211081E00E94431140E061E081E00E944311AC
S11321208C2F82958F700E9427100E9459108C2F3B
S11321300E9427100E945910CF9108952FEF83EF2A
S113214091E0215080409040E1F700C0000082E01F
S11321500E9427100E94591082E00E9427100E94BA
S1132160591088E00E9427100E9459108CE00E94A8
S1132170841081E00E94841008950F931F93CF93DD
S11321808C01C0E003C00E946A10CF5FF801EC0F1D
S1132190F11D80818111F7CFCF911F910F91089587
S11321A090E4699F800D112480680E948410089532
S11321B01F93CF93DF93CDB7DEB72A970FB6F8946A
S11321C0DEBF0FBECDBF6115710581059105D1F448
S11321D080E30E946A102CC02AE030E040E050E026
S11321E00E942214E1E0F0E0EC0FFD1FE10FF11D6D
S11321F017FDFA95605D6083622F732F842F952FEE
S11322001F5F01C010E0611571058105910521F77B
S113221011500CC0E1E0F0E0EC0FFD1FE10FF11DE7
S113222017FDFA9580810E946A101150112394F7CA
S11322302A960FB6F894DEBF0FBECDBFDF91CF91C3
S11322401F91089587B18F7787B987B1806487B963
S113225086B1887F86B986B1876086B986B1806881
S113226086B9089597B1907E97B997B1892B87B9AC
S113227086B1806486B9349BFECF86B1806186B90D
S113228084B195B10895423008F06FC04130A1F592
S1132290813089F028F08230C9F0833011F108953B
S11322A02BB381E090E002C0880F991F6A95E2F792
S11322B0822B8BBB089528B381E090E002C0880F85
S11322C0991F6A95E2F7822B88BB089525B381E0B4
S11322D090E002C0880F991F6A95E2F7822B85BBB4
S11322E0089522B381E090E002C0880F991F6A9597
S11322F0E2F7822B82BB0895411137C0813091F0FF
S113230028F08230D9F0833029F108952BB381E08D
S113231090E002C0880F991F6A95E2F780958223A6
S11323208BBB089528B381E090E002C0880F991F09
S11323306A95E2F78095822388BB089525B381E0EE
S113234090E002C0880F991F6A95E2F78095822376
S113235085BB089522B381E090E002C0880F991FE5
S11323606A95E2F78095822382BB0895813041F01B
S113237028F0823039F0833039F008956ABB08952B
S113238067BB089564BB089561BB08958FB78068E7
S11323908FBF089593B7986093BF93B7906493BF2A
S11323A093B7906293BF93B79F7E93BF93B7987F81
S11323B093BF93B7936093BF682F70E080E090E081
S11323C00E94EC1223E333E343E250E40E945513EA
S11323D00E94BB126CBF08951F920F920FB60F920A
S11323E011242F933F934F935F936F937F938F9316
S11323F09F93AF93BF93EF93FF93E0919806F0916F
S113240099060995FF91EF91BF91AF919F918F919B
S11324107F916F915F914F913F912F910F900FBEDC
S11324200F901F9018951F920F920FB60F921124C0
S11324302F933F934F935F936F937F938F939F93C8
S1132440AF93BF93EF93FF93E0919A06F0919B06AD
S11324500995FF91EF91BF91AF919F918F917F91DA
S11324606F915F914F913F912F910F900FBE0F90FD
S11324701F9018959C0140E050E060E472E48FE006
S113248090E00E9422142150310930BD29B988E11D
S11324908AB986E880BD0895FC0104C05D9BFECF27
S11324A08CB9319680818111F9CF08955D9BFECF5F
S11324B08CB908951F93CF93DF93CDB7DEB72A97D6
S11324C00FB6F894DEBF0FBECDBFAC01892B99F5D2
S11324D080E390E00E94561240C09A01ADECBCEC3F
S11324E00E94441496958795969587959695879519
S11324F09C01220F331F880F991F880F991F880F83
S1132500991F820F931F9A01281B390BC901E1E01F
S1132510F0E0EC0FFD1FE10FF11D805D80839A0157
S11325200E944414AC015695479556954795569587
S113253047951F5F01C010E04115510571F60BC0AE
S11325401150E1E0F0E0EC0FFD1FE10FF11D80817F
S113255090E00E9456121111F3CF2A960FB6F89408
S1132560DEBF0FBECDBFDF91CF911F9108955F9B5A
S1132570FECF8CB108950E942F1388F09F5798F0D6
S1132580B92F9927B751B0F0E1F0660F771F881F74
S1132590991F1AF0BA95C9F714C0B13091F00E948E
S11325A04913B1E008950C944913672F782F8827B5
S11325B0B85F39F0B93FCCF3869577956795B395B5
S11325C0D9F73EF490958095709561957F4F8F4F24
S11325D09F4F0895E89409C097FB3EF49095809529
S11325E0709561957F4F8F4F9F4F9923A9F0F92FD5
S11325F096E9BB279395F695879577956795B79553
S1132600F111F8CFFAF4BB0F11F460FF1BC06F5F38
S11326107F4F8F4F9F4F16C0882311F096E911C04A
S1132620772321F09EE8872F762F05C0662371F06B
S113263096E8862F70E060E02AF09A95660F771F7F
S1132640881FDAF7880F9695879597F9089557FDAF
S11326509058440F551F59F05F3F71F04795880F0C
S113266097FB991F61F09F3F79F0879508951216A3
S113267013061406551FF2CF4695F1DF08C016164F
S113268017061806991FF1CF869571056105089400
S11326900895E894BB2766277727CB0197F9089517
S11326A00E94C21308F48FEF08950E9468130C94DB
S11326B0FD130E94EF1338F00E94F61320F09523C7
S11326C011F00C94E6130C94EC1311240C944A139B
S11326D00E94271370F3959FC1F3950F50E0551F87
S11326E0629FF001729FBB27F00DB11D639FAA2763
S11326F0F00DB11DAA1F649F6627B00DA11D661FB2
S1132700829F2227B00DA11D621F739FB00DA11DD2
S1132710621F839FA00D611D221F749F3327A00D8C
S1132720611D231F849F600D211D822F762F6A2F28
S113273011249F5750409AF0F1F088234AF0EE0F8D
S1132740FF1FBB1F661F771F881F91505040A9F7BA
S11327509E3F510580F00C94E6130C944A135F3F9E
S1132760E4F3983ED4F3869577956795B795F795F6
S1132770E7959F5FC1F7FE2B880F911D969587956E
S113278097F90895990F0008550FAA0BE0E8FEEF9A
S113279016161706E807F907C0F012161306E40721
S11327A0F50798F0621B730B840B950B39F40A261A
S11327B061F0232B242B252B21F408950A2609F4F8
S11327C0A140A6958FEF811D811D089597F99F67FC
S11327D080E870E060E008959FEF80EC08950024A5
S11327E00A941616170618060906089500240A9472
S11327F012161306140605060895092E0394000CF8
S113280011F4882352F0BB0F40F4BF2B11F460FF86
S113281004C06F5F7F4F8F4F9F4F0895AA1BBB1B50
S113282051E107C0AA1FBB1FA617B70710F0A61BCC
S1132830B70B881F991F5A95A9F780959095BC01ED
S1132840CD010895A1E21A2EAA1BBB1BFD010DC0E8
S1132850AA1FBB1FEE1FFF1FA217B307E407F5074C
S113286020F0A21BB30BE40BF50B661F771F881F28
S1132870991F1A9469F760957095809590959B01BE
S1132880AC01BD01CF010895A29FB001B39FC00167
S1132890A39F700D811D1124911DB29F700D811D88
S11328A01124911D0895FB01DC0104C08D91019058
S11328B0801921F441505040C8F7881B990B0895A2
S11328C0FB01DC0102C001900D9241505040D8F749
S10928D00895F894FFCF07
S11328D6E70354454D5020000A456E746572205036
S11328E6617373776F72643A0041444D494E204DCB
S11328F64F44450055534552204D4F4445005745D6
S11329064C434F4D4520200057524F4E47205041CF
S11329165353574F524421002020202020202020AA
S113292620202020202020004E4F204C414D507363
S1132936004F4E45204C414D500054574F204C41BA
S11329464D50002046414E20002520002520200021
S11329564C4D33350053637265656E005465726D74
S1132966696E616C0046414E004C445200454E541B
S113297645522050415353574F5244210049444C29
S1132986450057726974696E673A2000526561643E
S1132996696E672041646D696E2050617373776F49
S11329A672643A2000427974652000312E20416415
S11329B66420557365720A322E2044656C6574650D
S11329C620557365720A332E204578697420416454
S11329D66D696E204D6F64650A00456E74657220DC
S11329E6557365722049443A2000456E7465722019
S11329F650617373776F7264202834206368617240
S1132A06616374657273293A2000557365722041B7
S1132A1664646564205375636365737366756C6C6F
S1132A26790A005573657220446174616261736545
S1132A362046756C6C0A00456E7465722055736584
S1132A467220494420746F2044656C6574653A208D
S1132A5600557365722044656C657465642053750E
S1132A66636365737366756C6C790A005573657276
S1132A76204E6F7420466F756E640A00457869743B
S1132A86696E672041646D696E204D6F64652E2EF4
S1072A962E0A000000
S9030000FC
